:020000040800F2
:1000000034280020950D0008210E0008210E00085C
:10001000210E0008210E0008210E0008000000003B
:10002000000000000000000000000000210E000899
:10003000210E000800000000210E0008210E00081B
:10004000210E0008210E0008210E0008210E0008D4
:10005000210E0008210E000835410008210E00087D
:10006000210E0008210E0008210E0008210E0008B4
:10007000210E0008210E0008210E0008210E0008A4
:10008000210E0008210E0008210E0008210E000894
:10009000210E0008210E0008210E0008210E000884
:1000A000210E0008210E0008210E0008210E000874
:1000B000210E0008210E0008210E0008210E000864
:1000C000210E0008210E0008210E0008210E000854
:1000D000210E0008210E0008210E0008210E000844
:1000E000210E0008210E0008F5400008210E00082E
:1000F000210E0008210E0008210E0008210E000824
:10010000210E0008210E0008210E0008210E000813
:10011000210E0008210E0008210E0008210E000803
:10012000210E0008210E0008210E0008210E0008F3
:10013000210E0008210E0008210E0008210E0008E3
:10014000210E0008210E0008210E00082941000898
:10015000210E0008210E0008210E0008210E0008C3
:10016000210E0008210E0008210E0008210E0008B3
:10017000210E0008210E0008210E0008210E0008A3
:10018000210E0008210E000830B44FF460538D0892
:10019000C4F20103AA1C01F0030153F822508900A4
:1001A0000F2404FA01FC25EA0C0443F8224053F81A
:1001B000224000FA01F040EA040143F8221030BC6A
:1001C000704700BF10B4C478F4B900EB8200033369
:1001D0009B10D0F8D00017D00C685A1E046002F0B3
:1001E0000104012293420FD024B14C6802229342B1
:1001F000046009D051F822400132046051F82240D5
:10020000013293420460F5D1002010BC704700BF5A
:100210000332921030B4D0F8D04019D02068531E69
:10022000086003F0010001239A420FD020B120683A
:1002300002239A42486009D0256841F82350581C8F
:10024000256802339A4241F82050F5D101EB820132
:10025000084630BC704700BF2DE9F00F0122002393
:1002600082704022012982B0C370828000F0B68083
:10027000002900F090800278417801924FF40062EA
:10028000C36002614FF4606A4FF488694FF4806B79
:10029000002900F0C6809846024608F510644FEA2F
:1002A000411C42F8184F2024ACF1200308F53061BE
:1002B0006445D163C3F3401108F512631BD051B1FB
:1002C0000246402442F81C3F08F532616445D16380
:1002D00008F514630FD0111D53604034083203F544
:1002E000007703F1200503F5087640336445CF63BA
:1002F0004D60D663EFD1019BC0F814B0C0F8CC902C
:10030000002B41D008F5A06101EB43156C1A0246A1
:1003100008F5A463203CAB4242F8901FC4F340149C
:100320000FD034B1024642F8943F08F5A863AB42BF
:1003300007D003F120045360403394600832AB428D
:10034000F7D1019D08F5805101EB05356B1AA3F536
:10035000805C024608F50053AB4242F8D01FCCF354
:10036000003411D034B1024642F8D43F03F5805333
:10037000AB4209D0111D536003F5805403F50053BF
:100380000A1DAB424C60F5D1C0F80CA1002002B0B0
:10039000BDE8F00F704700230C244FF0060C4FF41B
:1003A000606A4FF488694FF4806B4FF40062C4F2C6
:1003B0000403C1724FF4A061C180047080F801C0D1
:1003C000C4F2040A0194C4F20409C4F2040B6146A5
:1003D000C4F204029846C36002615DE708244FF04E
:1003E000040C4FF4A0784FF4606A4FF488694FF41E
:1003F000806B4FF400624FF0A043C1720221A0F85D
:1004000006800172047080F801C0C5F2000A0194F0
:10041000C5F20009C5F2000B6146C5F2000298461C
:10042000D9E7884667E700BF70B5037A0026012B3D
:1004300082B0044674D0C168CB6843F04005CD60FB
:100440000320019603F01CFEE36818694FF454651D
:100450000190C0F2030510E003F012FEE368196991
:100460000191019A0320002A0DDB03F009FEE368E5
:100470001A69013D1946019225D0019A0320002AEC
:1004800005F1FF35E8DA019840F001020192019987
:10049000196118694FF454620190C0F2030208E038
:1004A000186901900199C90709D51869013A0190A5
:1004B00005D0019911F0010F02F1FF32F0D10320B4
:1004C00003F0DEFDE168237A607A032B14BF4FF45A
:1004D00080324FF4403242F4301308B142F47013CA
:1004E0008B63142003F0E8FDE368217ADA680329BE
:1004F00008BF42F48032DA6094F808C0BCF1030F00
:100500007BD094F803E0BEF1010F06D1E368986850
:1005100020F03E0141F02A029A60002002B070BD36
:10052000C268417A936B66F3104309B143F48013B8
:100530009363D36823F4800E2EF0500C4CF010001F
:100540006FF3C3006FF3C7106FF351406FF3D340E5
:10055000D06000250320009503F092FDE3681A693E
:100560004FF454650092C0F203050FE003F088FDDC
:10057000E3681A6900920099032000290CDB03F05C
:100580007FFDE3681A69013D009224D000990320A1
:10059000002905F1FF35E9DA009840F001010091EA
:1005A000009A1A6118694FF454620090C0F2030275
:1005B00008E0186900900099C80709D51969013A3F
:1005C000009105D0009911F0010F02F1FF32F0D136
:1005D000032003F055FD94F803C0BCF1010F9CD13A
:1005E000052262F34406E36846F020069E6094F814
:1005F00003E0BEF1010F89D08FE7196B012060F392
:100600009B616FF3D75141F080552D2262F316455F
:100610001D63C82003F050FDE06845F40005056344
:10062000C82003F049FD6CE7C368986840F00102F8
:100630009A600020704700BFC368986820F00102EC
:100640009A600020704700BF00B583B0002301937B
:10065000019A42F020030193019A61F38A120192F8
:10066000019BC268136111694FF454630191C0F298
:10067000030308E0116901910198810609D5116908
:10068000013B019105D0019810F0200F03F1FF33D9
:10069000F0D1032003F0F4FC002003B000BD00BF44
:1006A00008B5C268D36801296FF35D736FF39E7359
:1006B00008D009B943F080433220D36003F0FCFC3A
:1006C000002008BD43F000533220D36003F0F4FC57
:1006D000002008BDC068436913F0010F14BF00205B
:1006E00001207047C3685A6998691040704700BF7D
:1006F000F0B5D0F80C51016900232B60044608685E
:1007000063F3CC200860E27A012A83B000F0B6805F
:10071000E26800200090009B43F0200100910098C7
:10072000102565F38A100090009B136111694FF446
:1007300054630091C0F2030308E011690091009D29
:10074000A90609D51069013B009005D0009810F06A
:10075000200F03F1FF33F0D1032003F091FC0022BE
:1007600001920198E26840F010010191019B136130
:1007700015694FF454630195C0F2030308E0116951
:100780000191019DED0609D51569013B019505D043
:10079000019810F0100F03F1FF33F0D1032003F0A4
:1007A0006FFC256900224FF0FF312A616A61A9615F
:1007B000EA616378002B31D004F114001746FF265C
:1007C00050F8043F1968C1F3076E0EF0800C5FFA11
:1007D0008CF1002918BF4FF0904119601F619E6095
:1007E000637801329342EBD8C3B1002204F1500088
:1007F0001746FF2650F8043F1968C1F3076E0EF044
:10080000800C5FFA8CF1002918BF4FF090411960FD
:100810001F619E60637801329342EBD8286940F4EF
:1008200080722A61E378012B07D103F58173C0F24E
:100830000103402161F359432B63E3684FF40061E6
:100840004FF0FF320020C8F2000198615A615A60EF
:100850005A619961E278996982420CBF4FF0100E9B
:1008600086464EF4872C4CF0081242F4401C21EAD4
:100870000C0E4EEA0C029A6103B0F0BD0E68E268FD
:1008800080254FF40010A02765F30F0067F30F03D6
:1008900046F003060E6065F31F43556290624FF405
:1008A0009070C2F8043160F30F03C0F220034FF4DC
:1008B000A071C2F8083161F30F036FF31F43C2F850
:1008C0000C3126E701698B68C3F341014B1E022BF3
:1008D0009ABF024AD05C0320704700BF74540008DE
:1008E0000369826998681168C0F34100022808D042
:1008F0006FF30A011160596841F480725A60002058
:100900007047032060F30A011160596841F4807256
:100910005A600020704700BF70B44B780022012B52
:1009200026D00B7800EB8304012505FA03FC646DE7
:100930006CF31F422368C3F3072505F0800C5FFAB0
:100940008CF575B98E68CD78B1F806C066F30A03E8
:1009500065F393436CF3995343F0805343F40041A0
:1009600021600069C1690A43C261002070BC704700
:100970000C7800EB840503FA04F363F30F02AC690F
:10098000D8E700BF30B44A780023012A1C4613D0B0
:100990000A7800EB8201012505FA02FC496D6CF32F
:1009A0001F4400696FF3CF330B60C36923EA04046B
:1009B000C461002030BC7047097800EB810502FA61
:1009C00001F262F30F04A969EBE700BF2DE9F00122
:1009D0004B78012B44D00C784D6900EB84077B6D7C
:1009E0001F681A693E460DB3D1F808C005EB0C0428
:1009F000013CB4FBFCF4A405A40D64F3DC420CFB45
:100A000004F464F312021A61C278012A18D0CA7879
:100A1000012A1FD091F800C000EB8C0046F004467C
:100A2000416D0E600020BDE8F00170478C6864F3F2
:100A30001202012464F3DC421A61C278012AE6D171
:100A40000B780A6900EB830CDCF854305A61CA78E1
:100A5000012ADFD14E79002E76D047F00056D9E733
:100A60000D784A6900EB8504A5692F682C693E461C
:100A7000002A64D08B6891F803C002EB030808F1E8
:100A8000FF3862F31204B8FBF3F363F3DC44BCF108
:100A9000010F08BF6CF35E742C6190F803C0BCF1C9
:100AA000010F5DD091F803C0BCF1010F4FD05AB1D6
:100AB00003690C785D6B4FF0010C0CFA04F42C43C5
:100AC0005C63CB78012B42D00B7800EB830C46F0B3
:100AD0000446DCF818301E60CB78012BA2D1C57813
:100AE000CC680978002D9DD192B200EB81000332D1
:100AF0009210D0F8D01095D02568501E012A0D60B4
:100B000000F001008ED020B1606802239A42086094
:100B100088D054F823000133086054F823000133CF
:100B20009A4208603FF47EAF54F823000133086016
:100B300054F8230001339A420860EAD172E762F365
:100B4000120463F3DC44A7E747F0805662E70369C9
:100B50009E68F60554BF47F0005647F08056B3E74D
:100B60000B780C6900EB830CDCF818305C61A8E7AB
:100B7000F0B44B78012B82B030D00B784E6900EB8B
:100B80008304636D1A681D6900950EB38E689DF825
:100B900000509DF802404E6166F30605012666F39B
:100BA000C4048DF800508DF80240009C1C6190F840
:100BB00003C0BCF1010F41D091F800C000EB8C00E4
:100BC00042F00441426D1160002002B0F0BC704759
:100BD0009DF800509DF802408E68DDE782694C69FF
:100BE000156816690096002C30D08B689C4242D95B
:100BF0009DF800404B6163F306048DF800409DF8BA
:100C000002C0012464F3C40C8DF802C0009B136180
:100C1000C378012B27D045F004431360C278002A23
:100C2000D2D14A69002ACFD003690A78596B0120D2
:100C300000FA02FC4CEA01005863C5E70B780C6926
:100C400000EB830CDCF854305C61B5E79DF8007074
:100C50009DF8026064F3060763F3C4068DF8007024
:100C60008DF80260D2E70B780C6900EB830CDCF89E
:100C700018305C61CFE79DF8003064F306038DF80F
:100C80000030BCE74A780B78012A00EB830006D0DD
:100C9000416D086840F400120A60002070478269C4
:100CA0001368C3F3076C0CF08000C1B209B143F0C4
:100CB000804343F4001313600020704791F801C093
:100CC0000B78C978BCF1010F00EB830C0CBFDCF88A
:100CD0001820DCF85420881E1368C1B26FF35553F6
:100CE000012998BF43F0805313600020704700BF74
:100CF00003699A69D96901EA0200000C704700BFD4
:100D000000EB810C0269DCF854108B6850691840C4
:100D1000704700BF02699169D36901EA030080B29C
:100D2000704700BF82B0012200230021009362F3CC
:100D3000C4011823C0228DF803208DF802108DF80D
:100D40000030436D00991961C278012A06D100F57F
:100D5000B96159614FF080201A68186002B070477D
:100D6000837A63B102699168C90708D5D0F80C315C
:100D7000D0F80C016FF341036FF300030360704779
:100D8000704700BF704700BF704700BF704700BF8B
:100D9000704700BF70B41C491C4CA14221D21C48B2
:100DA00002460B4652F8046B43F8046BCD436519B9
:100DB000A342C5F3800514D23DB112681A6001F157
:100DC0000803A34200F108020BD21146184651F85D
:100DD000045B526840F8045B5A60031D0A1DA3427D
:100DE000F3D30C480C494FF000028842B8BF40F8DA
:100DF000042BFADBDFF82400016841F47001016084
:100E000070BC00F06BBE00BF000000205401002049
:100E100088550008540100203420002088ED00E0AF
:100E2000FEE700BF30B545F27844C0F60004054641
:100E300083B0012154F8200004EB450400F0B6FF14
:100E400040F21C00238AC2F20000012100938DF8B9
:100E5000041000228DF80710022350F825008DF8A9
:100E6000062069468DF8053002F01AFE03B030BD49
:100E700030B50446012087B00D46014600F096FFCC
:100E800001214FF4804000F0BBFF184806A900EB99
:100E900084040123206941F8143D00248DF80840A2
:100EA0008DF80B4002F0FCFD012D01D007B030BDE4
:100EB00021462046FFF768F903A8082303958DF81B
:100EC00010408DF811308DF8125004F0D1F80F2138
:100ED000062205A88DF814208DF815108DF816102F
:100EE0008DF8175004F018F9E0E700BF1C0000204F
:100EF000D0F8E41510B5044608698047032384F848
:100F00001231002010BD00BFD0F8E415042208B54E
:100F100080F81221CB689847002008BD08B5D0F8AA
:100F2000E035DB6903B19847002008BD024608B5EB
:100F3000D2F8E0150B6A9847002008BD024608B5B4
:100F4000D2F8E0154B6A9847002008BD002110B583
:100F5000402204460B4604F079F980214022002308
:100F6000204604F073F9D4F8E415A078012284F83F
:100F700012214B689847002010BD00BF10B582B009
:100F80006946044603F028FB9DF8001001F01F039A
:100F9000012B15D0022B0ED043B121F07F01C9B235
:100FA000204604F0C3F9002002B010BD2046694677
:100FB00003F0C4F8F7E72046694603F083FAF2E746
:100FC0002046694603F04CFAEDE700BF38B5044609
:100FD00029B990F81131022B0DD0002038BDD0F87E
:100FE000E0255369002BF8D090F812010328F4D1C2
:100FF00020469847F1E7D0F83421D0F820319A42C2
:1010000010D9C1780129D0F82411C3EB020208BF1E
:10101000C918C0F8342108BFC0F8241192B204F0F6
:10102000E5F9DAE7D0F83821B2FBF3F503FB152533
:101030006DB993420BD8D0F83C01824207D22046CA
:1010400029462A4604F0D2F9C4F83C51C5E7D4F841
:10105000E035DB6823B194F812C1BCF1030F03D073
:10106000204604F0F7F9B8E720469847F8E700BFB4
:1010700010B5044629B990F81131032B0CD000208B
:1010800010BDD0F8E0359B69002BF8D090F8122104
:10109000032AF4D19847F2E7D0F88C23D0F87833BC
:1010A0009A4212D9C1780129D0F87C13C3EB02020D
:1010B00004BFC918C0F87C13C0F88C239A4228BF1B
:1010C0001A4692B204F0ACF9D9E7D0F8E00503690A
:1010D00023B194F812C1BCF1030F03D0204604F0F1
:1010E000A9F9CCE720469847F8E700BF2DE9F04181
:1010F000069D044616461F46884602F055FF4146A7
:101100002046C4F8E075C4F8E455C4F8E86504F076
:1011100047F8D4F8E405036898472046BDE8F04155
:1011200002F098BFD0F8E03510B504461A68904731
:10113000D4F8E40583689847002010BDD0F8E02576
:1011400008B553689847002008BD00BF01464FF41A
:10115000A84008B5C4F2000003F058FF4FF4A840BF
:101160008421C4F20000C0F2070103F055FF0028FB
:10117000F4D008BD38B505460C464FF4A840C4F27B
:1011800000004FF4003103F057FF0028F5D14FF471
:10119000A840C4F20000012103F004FF4FF4A8406E
:1011A0000121C4F20000C0F2030103F035FF002862
:1011B000F4D04FF4A840C4F200002946224603F0C0
:1011C0000DFF14B1012C0CD038BD4FF4A840822182
:1011D000C4F20000C0F2070103F01EFF0028F4D0A3
:1011E00038BD4FF4A8400221C4F20000C0F2030150
:1011F00003F012FF0028E7D14FF4A8400221C4F207
:101200000000C0F2030103F007FF0028E9D0DBE78C
:1012100030B5012187B04FF400104FF4806500F025
:10122000E1FDC4F202050220012100F0BFFD01240E
:101230000223C02204A928468DF814308DF81530F9
:1012400004928DF816408DF8174002F029FC2846CC
:101250000621042202F0DCFC28460422072102F0C9
:10126000D7FC48F2A0624FF4804564F31F4200238C
:101270004FF4A84065F31F4069460092ADF8043072
:101280004BF6FF7C30224FF48063ADF806C0ADF81A
:101290000820ADF80A30ADF80C5003F0F7FD4FF41C
:1012A000A84065F31F40214603F06EFE07B030BD35
:1012B0002DE9F04704464FF4A840C4F200004FF473
:1012C000003103F0B9FE0028F5D14FF4A840C4F274
:1012D0000000012103F066FE4FF4A8400121C4F292
:1012E0000000C0F2030103F097FE0028F4D04FF491
:1012F000A840C4F200003021002203F06FFE4FF43A
:10130000A8408221C4F20000C0F2070103F084FE6D
:101310000028F4D04FF4A840C4F20000A82103F044
:1013200075FE4FF4A8408421C4F20000C0F207010A
:1013300003F072FE0028F4D04FF4A840C4F200007D
:10134000012103F03DFE4FF4A840C4F200004FF429
:10135000003103F071FE0028F5D14FF4A840C4F22B
:101360000000012103F01EFE4FF4A8400121C4F249
:101370000000C0F2030103F04FFE0028F4D04FF448
:10138000A840C4F200003021012203F027FE4FF4F0
:10139000A8400221C4F20000C0F2030103F03CFEA9
:1013A0000028F4D04FF4A840C4F20000012103F05B
:1013B0001FFE4FF4A8404021C4F20000C0F2030118
:1013C00003F02AFE0028F4D04FF4A840C4F2000035
:1013D00003F01EFE5C4D28604FF4A840C4F20000EC
:1013E000012103F005FE4FF4A8404021C4F20000A3
:1013F000C0F2030103F010FE0028F4D04FF4A8401F
:10140000C4F2000003F004FE504E30604FF4A840D8
:10141000C4F20000012103F0EBFD4FF4A84040218D
:10142000C4F20000C0F2030103F0F6FD0028F4D07E
:101430004FF4A840C4F2000003F0EAFDDFF8209169
:10144000C9F800004FF4A840C4F20000012103F0E5
:10145000CFFD4FF4A8404021C4F20000C0F20301C8
:1014600003F0DAFD0028F4D04FF4A840C4F20000E5
:1014700003F0CEFDDFF8ECA0CAF800004FF4A8405E
:10148000C4F20000012103F0B3FD4FF4A840402155
:10149000C4F20000C0F2030103F0BEFD0028F4D046
:1014A0004FF4A840C4F2000003F0B2FD284F3860AA
:1014B0004FF4A840C4F20000002103F099FD4FF45E
:1014C000A8404021C4F20000C0F2030103F0A4FDD3
:1014D0000028F4D04FF4A840C4F2000003F098FDB7
:1014E000DFF88480C8F800004FF4A8400121C4F25E
:1014F000000003F065FD782C10D0792C18D07A2CE0
:1015000001D0BDE8F087D8F800003968114A41EAF7
:10151000002343F30B101060BDE8F08731682A68A0
:101520000D4B42EA012040F30B101860BDE8F08734
:10153000DAF80000D9F80010084B41EA002C4CF30F
:101540000B101860BDE8F087D80700209C01002030
:10155000BC010020A8010020B0010020D407002019
:10156000B401002098010020900100202DE9F047EF
:1015700004464FF4A840C4F200004FF4003103F0D9
:101580005BFD0028F5D14FF4A840C4F20000012112
:1015900003F008FD4FF4A8400121C4F20000C0F29E
:1015A000030103F039FD0028F4D04FF4A840C4F241
:1015B00000003C21002203F011FD4FF4A8408221DD
:1015C000C4F20000C0F2070103F026FD0028F4D0A9
:1015D0004FF4A840C4F20000032103F017FD4FF4BC
:1015E000A8408421C4F20000C0F2070103F014FDFA
:1015F0000028F4D04FF4A840C4F20000012103F009
:10160000DFFC4FF4A840C4F200004FF4003103F0B7
:1016100013FD0028F5D14FF4A840C4F200000121C9
:1016200003F0C0FC4FF4A8400121C4F20000C0F256
:10163000030103F0F1FC0028F4D04FF4A840C4F2F9
:1016400000003C21012203F0C9FC4FF4A840022114
:10165000C4F20000C0F2030103F0DEFC0028F4D065
:101660004FF4A840C4F20000012103F0C1FC4FF484
:10167000A8404021C4F20000C0F2030103F0CCFCFA
:101680000028F4D04FF4A840C4F2000003F0C0FCDE
:101690005B4E30604FF4A840C4F20000012103F01B
:1016A000A7FC4FF4A8404021C4F20000C0F203019F
:1016B00003F0B2FC0028F4D04FF4A840C4F20000BC
:1016C00003F0A6FC4F4D28604FF4A840C4F2000080
:1016D000012103F08DFC4FF4A8404021C4F200002A
:1016E000C0F2030103F098FC0028F4D04FF4A840A6
:1016F000C4F2000003F08CFCDFF81CA1CAF8000063
:101700004FF4A840C4F20000012103F071FC4FF433
:10171000A8404021C4F20000C0F2030103F07CFCA9
:101720000028F4D04FF4A840C4F2000003F070FC8D
:10173000DFF8E890C9F800004FF4A840C4F20000B8
:10174000012103F055FC4FF4A8404021C4F20000F1
:10175000C0F2030103F060FC0028F4D04FF4A8406D
:10176000C4F2000003F054FCDFF8B480C8F80000B5
:101770004FF4A840C4F20000002103F039FC4FF4FC
:10178000A8404021C4F20000C0F2030103F044FC71
:101790000028F4D04FF4A840C4F2000003F038FC55
:1017A000194F38604FF4A8400121C4F2000003F043
:1017B00007FC782C0FD0792C16D07A2C01D0BDE8FC
:1017C000F087D8F800003968104A41EA002318B2BF
:1017D0001060BDE8F08731682A680D4B42EA0120AD
:1017E00000B21860BDE8F087DAF80000D9F8001000
:1017F000084B41EA002C0FFA8CF01860BDE8F08726
:10180000B801002088010020F4070020D401002046
:10181000DC070020AC0100208C010020E407002040
:10182000C80100202DE9F04704464FF4A840C4F257
:1018300000004FF4003103F0FFFB0028F5D14FF416
:10184000A840C4F20000012103F0ACFB4FF4A84013
:101850000121C4F20000C0F2030103F0DDFB002807
:10186000F4D04FF4A840C4F20000D221002203F0CB
:10187000B5FB4FF4A8408221C4F20000C0F207017A
:1018800003F0CAFB0028F4D04FF4A840C4F20000D3
:10189000A82103F0BBFB4FF4A8408421C4F2000050
:1018A000C0F2070103F0B8FB0028F4D04FF4A840C1
:1018B000C4F20000012103F083FB4FF4A840C4F2FE
:1018C00000004FF4003103F0B7FB0028F5D14FF4CE
:1018D000A840C4F20000012103F064FB4FF4A840CB
:1018E0000121C4F20000C0F2030103F095FB0028BF
:1018F000F4D04FF4A840C4F20000D221012203F03A
:101900006DFB4FF4A8400221C4F20000C0F20301B5
:1019100003F082FB0028F4D04FF4A840C4F200008A
:10192000012103F065FB4FF4A8404021C4F2000000
:10193000C0F2030103F070FB0028F4D04FF4A8407C
:10194000C4F2000003F064FB5B4D28604FF4A84034
:10195000C4F20000012103F04BFB4FF4A8404021EA
:10196000C4F20000C0F2030103F056FB0028F4D0DB
:101970004FF4A840C4F2000003F04AFB4F4E306021
:101980004FF4A840C4F20000012103F031FB4FF4F2
:10199000A8404021C4F20000C0F2030103F03CFB68
:1019A0000028F4D04FF4A840C4F2000003F030FB4C
:1019B000DFF81C91C9F800004FF4A840C4F2000001
:1019C000012103F015FB4FF4A8404021C4F20000B0
:1019D000C0F2030103F020FB0028F4D04FF4A8402C
:1019E000C4F2000003F014FBDFF8E8A0CAF800001E
:1019F0004FF4A840C4F20000012103F0F9FA4FF4BB
:101A0000A8404021C4F20000C0F2030103F004FB2F
:101A10000028F4D04FF4A840C4F2000003F0F8FA14
:101A2000274F38604FF4A840C4F20000002103F0B3
:101A3000DFFA4FF4A8404021C4F20000C0F20301D5
:101A400003F0EAFA0028F4D04FF4A840C4F20000F2
:101A500003F0DEFADFF88080C8F800004FF4A840F9
:101A60000121C4F2000003F0ABFA782C0FD0792CDE
:101A700016D07A2C01D0BDE8F087D8F8000039687C
:101A8000104A41EA002318B21060BDE8F0873168BF
:101A90002A680D4B42EA012000B21860BDE8F087C9
:101AA000DAF80000D9F80010084B41EA002C0FFAD0
:101AB0008CF01860BDE8F087C4010020E00700202A
:101AC000C8070020D0010020D0070020A40100207A
:101AD000A0010020CC010020CC0700202DE9F04F10
:101AE00083B002F07FF90120FFF79CF90020FFF797
:101AF00099F90220FFF796F90320FFF793F90020E8
:101B00000146FFF7B5F96449644A654B65480091A1
:101B10000121FFF7EBFA02F0FFF9FFF779FB002153
:101B20003020FFF727FB2020FFF710FB2720FFF7CF
:101B30000DFB4FF4A8400121C4F2000003F040FA6D
:101B400000213C20FFF716FB0220FFF7FFFA0020E0
:101B5000FFF7FCFA4FF4A840C4F20000012103F0A3
:101B60002FFA0021D220FFF705FB2020FFF7EEFA25
:101B70000F20FFF7EBFA4FF4A840C4F20000012158
:101B800003F01EFADFF85891DFF85881464F474EB0
:101B9000474D484CDFF850A1DFF850B17820FFF7EF
:101BA00087FB4549034602464448C9F8003001F026
:101BB00005FF424802F0FAF87920FFF779FB404927
:101BC000034602463D48C8F8003001F0F7FE3B48A6
:101BD00002F0ECF87A20FFF76BFB034602463B600D
:101BE0003849364801F0EAFE344802F0DFF8782040
:101BF000FFF7BCFC3449034602463048336001F02D
:101C0000DDFE2E4802F0D2F87920FFF7AFFC2F4915
:101C10000346024629482B6001F0D0FE274802F017
:101C2000C5F87A20FFF7A2FC29490346024623485B
:101C3000236001F0C3FE214802F0B8F87820FFF7D6
:101C4000F1FD2449034602461C48CAF8003001F061
:101C5000B5FE1A4802F0AAF87920FFF7E3FD1E4905
:101C6000034602461548CBF8003001F0A7FE1348A2
:101C700002F09CF87A20FFF7D5FD40F2D013C2F2B3
:101C800000030246186015490C4801F097FE0B4806
:101C900002F08CF882E700BF0000002094000020D2
:101CA00028010020D8010020A8010020DC07002026
:101CB000AC010020D4010020A8540008E80700204F
:101CC000B0540008B8540008C0540008C8540008B4
:101CD000D0540008D8540008E0540008E854000824
:101CE000B0010020D4070020D0070020A40100206C
:101CF00010B44FF46053C4F202039A6802F00C026D
:101D0000042A26D0082A2AD04FF41052C0F2F40236
:101D100002604FF4605CC4F2020C2349DCF8083026
:101D2000C3F303140B5D22FA03F24260DCF80840AF
:101D3000C4F38223CC5C22FA04F48460DCF808301B
:101D4000C3F3423C11F80C1022FA01F3C36010BC3B
:101D500070474FF49052C0F27A020260D9E75C6893
:101D60005A68596814F4800F4FF4605C14BF4FF444
:101D700090534FF41053C4F2020C14BFC0F27A0314
:101D8000C0F2F40302F03F02C1F38814B3FBF2F196
:101D9000DCF80430C3F3014201FB04F1541C63007E
:101DA000B1FBF3F20260B4E7600000204FF460532F
:101DB000C4F202031A6B19B922EA000119637047D1
:101DC00010431863704700BF4FF46053C4F202031E
:101DD0005A6B19B922EA00015963704710435863DE
:101DE000704700BF4FF46053C4F202031A6C19B974
:101DF00022EA00011964704710431864704700BF5D
:101E00004FF46053C4F202035A6C19B922EA00017C
:101E10005964704710435864704700BF4FF46053D3
:101E2000C4F202031A6A19B922EA00011962704762
:101E300010431862704700BF2DE9F04F561E092B62
:101E400089B01D460446B44600F29680002E40F349
:101E50003881434203F00303B34228BF3346002BCB
:101E600000F09F8400F8011B4FF001085F1E4345FE
:101E700007F00107824606F1FF3C15D947B100F88B
:101E8000011B4FF00208434582460CF1FF3C0BD981
:101E9000074608F1020807F8011B4170781C43450A
:101EA0008246ACF1020CF3D89E4253D0F01A4FEAAE
:101EB000900901904FEA890BB9F1000F2DD04FF036
:101EC000000861F3070861F30F28012761F3174841
:101ED000E31861F31F6809F1FF304F4543F8048BA5
:101EE00000EA070013D220B102274F4543F8048BC4
:101EF0000DD24046E046944602461846023740F866
:101F0000042B5A60031D4F45F7D36246C446019B1C
:101F10005B45DA44CBEB0C0C1CD00CF1FF3C0CF015
:101F20000103BCF1000F0AF8011B13DD33B10CF102
:101F3000FF3CBCF1000F0AF8011B0BDD5746ACF16A
:101F4000020C07F8011BBCF1000F8AF8011007F121
:101F5000010AF3DCA4194CF6CD47CCF6CC47A7FB1D
:101F60000573D80800EB8001A5EB410530352570DD
:101F7000104609B0BDE8F08F4CF6CD43CCF6CC430B
:101F8000A3FB0570C0080928019000F29C80771E11
:101F9000002F40F33B816342A2F1020B03F00303E5
:101FA0005B4528BF5B46002B00F0FE8320464FF0C8
:101FB000010C00F8011B03F1FF38013F634508F0F5
:101FC0000108824616D9B8F1000F07D000F8011BAE
:101FD0004FF0020C013F634582460BD980460CF15D
:101FE000020C08F8011B023F4170634508F1010033
:101FF0008246F3D89B4551D0C3EB0B004FEA9009C2
:1020000003904FEA89000290B9F1000F2FD04FF0F2
:10201000000861F3070861F30F284FF0010C61F32A
:102020001748E31861F31F6809F1FF30CC4543F806
:10203000048B00EA0C0013D228B14FF0020CCC45FF
:1020400043F8048B0CD24046B846074618460CF1BC
:10205000020C40F8047B5F60031DCC45F6D3474675
:10206000029B039898429A44C3EB070716D0013F9E
:1020700007F00103002F0AF8011B0FDD23B1013F18
:10208000002F0AF8011B09DDD446023F0CF8011BA2
:10209000002F8AF801100CF1010AF5DCA344019F1E
:1020A0004CF6CD40CCF6CC40A0FB0771CB08019F8D
:1020B00003EB8300A7EB400130318BF80010A4192B
:1020C00049E7012247E70746A3FB0770C008092834
:1020D000029000F29F80A2F1030BBBF1000FD846E3
:1020E00040F33B81634203F00300584528BF584644
:1020F000002800F05483234600F1FF3703F8011B4A
:1021000007F0010C0127B8429A46A2F1040816D93B
:10211000BCF1000F07D003F8011B0227B8429A4612
:10212000A2F105080BD99A4602370AF8011BB842FA
:1021300059700AF101039A46A8F10208F3D88345C1
:102140004FD0C0EB0B074FEA97094FEA890304977A
:102150000393B9F1000F2CD04FF0000C61F3070C82
:1021600061F30F2C012761F3174C201861F31F6CEA
:1021700009F1FF334F4540F804CB03EA070311D2BE
:1021800023B102274F4540F804CB0BD26346944657
:102190001A460346023743F8042B4260181D4F4588
:1021A000F7D362460398049F87428244C0EB080835
:1021B00017D008F1FF3000F0010300280AF8011BD6
:1021C0000FDD23B1013800280AF8011B09DDD446D0
:1021D00002380CF8011B00288AF801100CF1010AE2
:1021E000F5DCA344911E029F4CF6CD4CCCF6CC4CB2
:1021F000ACFB0770C308029F03EB8300A7EB40030F
:1022000030338BF8003004EB010B48E7A346022281
:10221000012644E7A3FB0070C0080928039000F2E0
:10222000A180A2F1040BBBF1000FDC4640F33D811D
:10223000674207F003035B4528BF5B46002B00F0B5
:10224000AC82204603F1FF3700F8011B07F00108BC
:102250000127BB428246A2F1050C16D9B8F1000F46
:1022600007D000F8011B0227BB428246A2F1060CF0
:102270000BD98046023708F8011BBB42417008F1B8
:1022800001008246ACF1020CF3D89B454FD0C3EB62
:102290000B074FEA97094FEA890005970490B9F1B7
:1022A000000F2CD0002761F3070761F30F270120EF
:1022B00061F31747E31861F31F6709F1FF384845D9
:1022C00043F8047B08EA000812D2B8F1000F04D0EA
:1022D0000220484543F8047B0AD2E0469C4602307F
:1022E0004CF8047B48455F600CF10403F6D3C44608
:1022F000049B059898429A44C3EB0C0C17D00CF140
:10230000FF3303F00100002B0AF8011B0FDD20B1A1
:10231000013B002B0AF8011B09DD5746023B07F879
:10232000011B002B8AF8011007F1010AF5DCA34418
:10233000D31E911E039F4CF6CD4CCCF6CC4CACFB7F
:102340000770C008039F00EB800CA7EB4C003030F7
:102350008BF8000004EB030B45E7A346032202269B
:10236000012140E7A3FB0076F308092B049300F258
:10237000A280571F002F384640F3E581634203F0E7
:102380000306BE4228BF3E46002E00F0DA812346F7
:1023900006F1FF3003F8011B4FF0010C00F00108BB
:1023A000901F66459A4616D9B8F1000F07D003F87A
:1023B000011B4FF0020CD01F66459A460BD9984678
:1023C0000CF1020C08F8011B02385970664508F13F
:1023D00001039A46F3D8B7424DD0BB1B4FEA930C8A
:1023E00005934FEA8C0BBCF1000F2DD0002361F355
:1023F000070361F30F234FF0010861F31743A61998
:1024000061F31F630CF1FF39E04546F8043B09EA2C
:10241000080913D2B9F1000F05D04FF00208E045CA
:1024200046F8043B0AD28146304608F1020840F8DB
:10243000043B7360061DE045F6D34846059E5E45A5
:10244000DA44CBEB000016D0431E03F00106002B4C
:102450000AF8011B0FDD26B1013B002B0AF8011B16
:1024600009DDD346023B0BF8011B002B8AF8011053
:102470000BF1010AF5DCE719053A04984CF6CD4654
:10248000CCF6CC46A6FB0003D908049E01EB8100E4
:10249000A6EB400302F1010130333B7004EB010B6A
:1024A000931CD11C161D053244E7A34604220326C3
:1024B000022101233EE704980A23B0FBF3F7092F1A
:1024C000059700F29480971F002F3B4640F38C80C5
:1024D000664206F00306BE4228BF3E46002E00F0CC
:1024E0008180204606F1FF3300F8011B4FF0010CFC
:1024F00003F00108D31F6645824616D9B8F1000FD4
:1025000007D000F8011B4FF0020C013B66458246E4
:102510000BD980460CF1020C08F8011B023B4170FC
:10252000664508F101008246F3D8B7424DD0B81B8A
:102530004FEA900C06904FEA8C0BBCF1000F2DD0A7
:10254000002061F3070061F30F204FF0010861F3F1
:102550001740A61961F31F600CF1FF39E04546F8FA
:10256000040B09EA080913D2B9F1000F05D04FF0A6
:102570000208E04546F8040B0AD29946334608F1B2
:10258000020843F8040B70601E1DE045F6D34B466D
:10259000069E5E45DA44CBEB030316D0013B03F005
:1025A0000100002B0AF8011B0FDD20B1013B002BBD
:1025B0000AF8011B09DDD446023B0CF8011B002B75
:1025C0008AF801100CF1010AF5DCE719063A0598C2
:1025D0000A23B0FBF3F603FB1601303101323970E8
:1025E000A7184AE7A246A2E727460022EFE7059F81
:1025F000B7FBF3F6092E069600F29480D61F002E44
:10260000334640F38C80674207F00307B74228BF88
:102610003746002F00F08180204607F1FF3300F895
:10262000011B4FF0010803F00109731E4745844662
:1026300016D9B9F1000F07D000F8011B4FF00208BE
:10264000013B474584460BD9844608F102080CF843
:10265000011B023B417047450CF101008446F3D851
:10266000BE424DD0F01B4FEA900807904FEA880B0E
:10267000B8F1000F2DD0002061F3070061F30F20A7
:1026800061F31740E7194FF0010A61F31F6008F189
:10269000FF39D04547F8040B09F0010913D9B9F106
:1026A000000F05D04FF0020AD04547F8040B0AD9B5
:1026B00099463B460AF1020A43F8040B78601F1D55
:1026C000D045F6D84B46079F5F45DC44CBEB030370
:1026D00016D0013B03F00100002B0CF8011B0FDDAD
:1026E00020B1013B002B0CF8011B09DDE346023B46
:1026F0000BF8011B002B8CF801100BF1010CF5DC21
:10270000A619073A069F0A20B7FBF0F300FB1371E6
:10271000303101323170A71859E7A446A2E72646A6
:102720000022EFE70698B0FBF3F7092F27D8083A05
:1027300023460020002A18DD03F8011B0130013A6E
:10274000F8E7A24649E62746002296E6B6FBF3F3F1
:102750002046FFF771FB23180A22B6FBF2F102FBB9
:102760001162303201301A7023180A22B7FBF2FBD3
:1027700002FB1B763036421C1E70A618C2E7B7FB60
:10278000F3F6093A092EE1D823460020002AE3DDBA
:1027900003F8011B0130013AF8E7A24677E5A246AB
:1027A000CFE48246FFF782BBA24625E42DE9F04F35
:1027B00083EAE375A5EBE375013A092D83B004467E
:1027C0001ED9002B4CF6CD43CCF6CC43C0F2A780EB
:1027D000A3FB0560C3082046FFF7E8FF241801307B
:1027E0004CF6CD42CCF6CC42A2FB0521CB0803EB44
:1027F0008302A5EB42053035257003B0BDE8F08FAC
:10280000002BB8BF013A002A40F39180464206F0FF
:102810000300824238BF1046002800F08A80264616
:102820004FF0010C06F8011B471E604507F0010739
:10283000B24602F1FF3815D947B106F8011B4FF037
:10284000020C6045B24608F1FF380BD937460CF14F
:10285000020C07F8011B71707E1C6045B246A8F19E
:102860000208F3D8824250D0161A4FEA9609019610
:102870004FEA890BB9F1000F2AD04FF0000C61F339
:10288000070C61F30F2C61F3174C2018012761F33B
:102890001F6C09F1FF36B94540F804CB06F001067C
:1028A00010D926B10227B94540F804CB0AD96646AB
:1028B000AC460546023745F8046B4660281DB9450D
:1028C000F7D8654601985845DA44CBEB08081CD088
:1028D00008F1FF3808F00100B8F1000F0AF8011BF9
:1028E00013DD30B108F1FF38B8F1000F0AF8011B11
:1028F0000BDDD446A8F102080CF8011BB8F1000F5B
:102900008AF801100CF1010AF3DCA418501C002B0A
:10291000BFF666AF2D2104F8011B013060E7A3FB71
:102920000503DB085B422046FFF740FF56E7012026
:10293000EDE79046A24697E72DE9F00F88B0541EC8
:10294000109D5FEA151A9B46274640F09080002CA8
:1029500040F3C581454205F00303A34228BF234647
:10296000002B00F0F78405464FF0010C05F8011B21
:102970005E1E671E634506F00106A94613D93EB1E7
:1029800005F8011B4FF0020C013F6345A9460AD927
:102990002E460CF1020C06F8011B023F6970751CF3
:1029A0006345A946F4D89C424BD0E51A4FEA9508F6
:1029B00000954FEA880AB8F1000F2BD04FF0000CB9
:1029C00061F3070C61F30F2C012661F3174CC31858
:1029D00061F31F6C08F1FF35464543F804CB05EA67
:1029E000060511D225B10226464543F804CB0BD289
:1029F0006546BC462F461D46023645F8047B5F609F
:102A00002B1D4645F7D36746009E5645D144CAEB79
:102A1000070716D0013F07F00103002F09F8011B3B
:102A20000FDD23B1013F002F09F8011B09DD4B46E3
:102A3000023F03F8011B002F89F8011003F101097F
:102A4000F5DC0019109F07F00F03092B0CD9BBF11F
:102A5000000F06D157330370104608B0BDE8F00FE1
:102A6000704737330370F7E730330370F4E72E0A0B
:102A7000009640F09B80661E002E40F33681434254
:102A8000971E03F00303BB4228BF3B460097002B71
:102A900000F05D84054603F1FF3705F8011B07F0E0
:102AA000010C0127013EBB42A94614D9BCF1000F1D
:102AB00006D005F8011B0227013EBB42A9460AD9F0
:102AC000A946023709F8011B023E6970BB4209F1B1
:102AD0000105A946F4D8009F9F4252D0DDF800C0FE
:102AE000C3EB0C08CDF808804FEA98084FEA880538
:102AF0000195B8F1000F2DD04FF0000C61F3070CD9
:102B000061F30F2C012761F3174CC31861F31F6C9D
:102B100008F1FF35474543F804CB05EA070511D214
:102B200025B10227474543F804CB0BD265469446AE
:102B30002A461D46023745F8042B5A602B1D47458F
:102B4000F7D36246019BDDF808C09C459944C3EB6E
:102B5000060616D0013E06F00103002E09F8011BFF
:102B60000FDD23B1013E002E09F8011B09DD4F46A0
:102B7000023E07F8011B002E89F8011007F1010938
:102B8000F5DC009943180AF00F0ABAF1090F08D9C9
:102B9000BBF1000F40F09E800AF1570A83F800A0B5
:102BA0004FE70AF1300A83F800A04AE7109B1F0B99
:102BB000029740F0A280A2F1030CBCF1000FCDF807
:102BC00004C040F3D481434203F00305654528BFA8
:102BD0006546002D00F0B9830346012603F8011B6A
:102BE0006F1EB54207F001079946A2F1040C13D9F4
:102BF0003FB103F8011B0226B5429946A2F1050C2C
:102C00000AD91F46023607F8011B59707B1CB542D2
:102C10009946ACF1020CF4D8019EAE424AD0019B19
:102C20005F1B4FEA97084FEA880303970293B8F1B6
:102C3000000F27D0002761F3070761F30F27012654
:102C400061F31747451961F31F6708F1FF334645E4
:102C500045F8047B03EA06030DD223B1022646455C
:102C600045F8047B07D22B46023643F8047B6F609D
:102C70001D1D4645F7D3029D039EAE42A944C5EBF8
:102C80000C0C17D00CF1FF3505F00103002D09F8ED
:102C9000011B0FDD23B1013D002D09F8011B09DDEA
:102CA000CC46023D0CF8011B002D89F801100CF1F7
:102CB0000109F5DC0199931E4118DDF800C00CF004
:102CC0000F05092D15D9BBF1000F0AD157350D702D
:102CD000C31858E70AF1370A83F800A0B1E60122C9
:102CE000B0E637350D70C3184DE7034602220124C4
:102CF00049E730350D70C31845E7109E350C039534
:102D000040F09B80151F002D01952E4640F3D58184
:102D1000434203F00307AF4228BF2F46002F00F0C5
:102D2000128303464FF0010C03F8011B7D1E561F52
:102D3000674505F00105994613D93DB103F8011B1C
:102D40004FF0020C961F674599460AD91D460CF1B3
:102D5000020C05F8011B023E59706B1C6745994631
:102D6000F4D8019BBB4251D0DDF804C0C7EB0C087E
:102D7000CDF810804FEA98084FEA88050395B8F11E
:102D8000000F2CD04FF0000C61F3070C61F30F2CF7
:102D9000C51961F3174C012761F31F6C08F1FF336C
:102DA000474545F804CB03EA070311D223B10227B4
:102DB000474545F804CB0BD2634694461A462B464A
:102DC000023743F8042B6A601D1D4745F7D362465E
:102DD000039D049FAF42A944C5EB060616D0751E9D
:102DE00005F00103002D09F8011B0FDD23B1013DA2
:102DF000002D09F8011B09DD4E46023D06F8011BB6
:102E0000002D89F8011006F10109F5DCDDF804C098
:102E1000D11E00EB0C06931E029D05F00F05092D37
:102E200007D9BBF1000F40F09E805735357041182F
:102E300043E73035357041183FE7109B1F0D07976A
:102E400040F09A80571F002F0197BC4640F3CB817A
:102E5000474207F00306664528BF6646002E00F08D
:102E6000D1810346751E03F8011B05F001070125FA
:102E7000AE429946A2F1060C13D93FB103F8011BEB
:102E80000225AE429946A2F1070C0AD91F46023527
:102E900007F8011B59707B1CAE429946ACF1020C3D
:102EA000F4D8019BB3424AD0019B9F1B4FEA97087D
:102EB0004FEA880505970495B8F1000F27D0002543
:102EC00061F3070561F30F25831961F317450126A7
:102ED00061F31F6508F1FF37464543F8045B07EAD5
:102EE00006070DD227B10226464543F8045B07D2F8
:102EF0001F46023647F8045B5D603B1D4645F7D32D
:102F0000049D059EAE42A944C5EB0C0C17D00CF1F4
:102F1000FF3303F00105002B09F8011B0FDD25B17C
:102F2000013B002B09F8011B09DDCC46023B0CF8E4
:102F3000011B002B89F801100CF10109F5DC019946
:102F4000161F4518931ED11EDDF80CC00CF00F079C
:102F5000092F40F2AA80BBF1000F40F0AA8057373A
:102F60002F70861958E7373535704118A5E60146A8
:102F7000032202240123A0E6DDF840C05FEA1C6CB6
:102F8000CDF810C040F09F80A2F10608B8F1000F04
:102F9000434640F3E481444204F00305454528BF1D
:102FA0004546002D00F0D98104466B1E04F8011B34
:102FB000012703F00106D31FBD42A14611D936B146
:102FC00004F8011B0227013BBD42A14609D9264650
:102FD000023706F8011B023B6170741CBD42A1461A
:102FE000F5D8A8454AD0C5EB080CCDF810C04FEA7B
:102FF0009C0C4FEA8C070197BCF1000F27D00024EE
:1030000061F3070461F30F24012661F317444519A6
:1030100061F31F640CF1FF37664545F8044B07EA7E
:1030200006070DD227B10226664545F8044B07D2A4
:103030002F46023647F8044B6C603D1D6645F7D3BA
:10304000019D049CAC42A944C5EB030316D0013B8F
:1030500003F00104002B09F8011B0FDD24B1013B33
:10306000002B09F8011B09DD4E46023B06F8011B47
:10307000002B89F8011006F10109F5DC8044063ABD
:10308000079901F00F03092B40F2B880BBF1000F44
:1030900040F0B080573388F80030531CC518961C98
:1030A000D11C131D541D06324EE730372F70861980
:1030B000B2E637372F708619AEE60646042203249F
:1030C00002230121A8E6109D2C0F059440F0A98051
:1030D000A2F10708B8F1000F434640F39F80454234
:1030E00005F00305454528BF4546002D00F08C80BE
:1030F0000446012704F8011B6B1EBD4203F00106C4
:10310000A146A2F1080311D936B104F8011B022728
:10311000013BBD42A14609D92646023706F8011BEC
:10312000023B6170741CBD42A146F5D8A84549D048
:10313000C5EB08044FEA940C4FEA8C0705940197FD
:10314000BCF1000F27D0002461F3070461F30F24C2
:10315000012661F31744451961F31F640CF1FF3731
:10316000664545F8044B07EA06070DD227B102264B
:10317000664545F8044B07D22F46023647F8044B04
:103180006C603D1D6645F7D3019D059EAE42A94486
:10319000C5EB030316D0013B03F00104002B09F833
:1031A000011B0FDD24B1013B002B09F8011B09DDD8
:1031B000CC46023B0CF8011B002B89F801100CF1E6
:1031C0000109F5DC8044073A049901F00F03092B4B
:1031D00020D9BBF1000F19D1573388F800300132E4
:1031E00000EB02084CE705460522042403230221D4
:1031F0000126A9E6373388F800304EE7303388F8E7
:1032000000304AE781464FE6814691E7373388F838
:103210000030E4E7303388F80030E0E78046059A74
:10322000D2E7A2F10805002D2B4640F389804642E3
:1032300006F00306AE4228BF2E46002E7ED004467E
:103240004FF0010C04F8011B771E6B1E664507F05A
:103250000107A04613D93FB104F8011B4FF0020C3F
:10326000013B6645A0460AD927460CF1020C07F837
:10327000011B023B61707C1C6645A046F4D8B54238
:103280004CD0AF1B4FEA970C4FEA8C040697019481
:10329000BCF1000F2BD0002461F307040CF1FF39BF
:1032A00061F30F2461F31744861909F001074FF009
:1032B000010961F31F64CC4546F8044B0FD92FB1C7
:1032C0004FF00209CC4546F8044B08D9374609F1BE
:1032D000020947F8044B74603E1DCC45F6D8DDF872
:1032E00004C0069E6645E044CCEB030316D0013BC8
:1032F00003F00104002B08F8011B0FDD24B1013B92
:10330000002B08F8011B09DD4446023B04F8011BB1
:10331000002B88F8011004F10108F5DC4519083A82
:10332000059901F00F03092B1FD9BBF1000F19D12B
:1033300057332B70013200EB020845E78046A0E7C7
:1033400005460022ECE781460EE5814667E48146AA
:10335000FFF7C4BB8146FFF728BB814643E68046A2
:1033600062468DE637332B70E4E730332B70E1E7AC
:103370002DE9F04F06468DB088461F4608B1002360
:1033800003704CF6CD4CCCF6CC4C0025CDF820C0CB
:1033900013785BB1454580F0D482252B0BD006F81D
:1033A000013B013201351378002BF3D1A84540F2DF
:1033B000C8823370BDE25078252848D030284BD0E1
:1033C000A0F13003541CDAB22021092A4CD8A446BB
:1033D00000221CF8010F02EB820903EB4902A0F165
:1033E00030035FFA83F90134B9F1090F02F0FF02EB
:1033F000EFD91346EB1898453CBFC5EB0802D2B293
:103400005838202800F29382DFE810F0D3019102AF
:103410009102910291029102910291029102910214
:103420009102CD01C3019102910291029102C30167
:1034300091029102910291029102910291029102F4
:103440009102B4019102F00091029102310006F85C
:10345000010B023201359BE79078A0F13003941CF8
:10346000DAB23021092AB2D900231A46C2E73B68F2
:10347000043702F1FF3C09971F0910460593CDF868
:1034800010C0E14640F06282BCF1000F40F3888238
:103490007342049F03F003039F4238BF3B46002B57
:1034A00000F08882B94637464FF0010C07F8011B3F
:1034B00003F1FF3A63450AF0010A069709F1FF3963
:1034C00019D9BAF1000F08D007F8011B4FF0020C10
:1034D0006345069709F1FF390DD9BA460CF1020C84
:1034E0000AF8011B634579700AF10107BA46A9F190
:1034F0000209F2D80697049F9F4268D0DDF810C0F9
:10350000C3EB0C0BCDF828B04FEA9B0B4FEA8B07AF
:103510000797BBF1000F3ED04FF0000A61F3070A96
:1035200061F30F2A06EB030C61F3174ACDF82CC0A8
:1035300061F31F6A01270BF1FF3C46F803A00B9BC8
:103540000CEA070C5F45CDF80CC003F1040C17D250
:10355000039B3BB102270B9B5F45C3F804A00CF112
:10356000040C0DD25346824618466346023743F890
:10357000040B5F45CCF8040003F1040CF5D350466E
:10358000079BDDF818C00A9F9C449F42CDF818C0E5
:10359000C3EB09091BD009F1FF3C069B0CF00107A6
:1035A000BCF1000F03F8011B11DD37B10CF1FF3C3A
:1035B000BCF1000F03F8011B09DD1F46ACF1020C42
:1035C00007F8011B59707B1CBCF1000FF5DCDDF81E
:1035D00010C0134606EB0C01059A02F00F02092AEF
:1035E00040F2AB8157320A70099FD8E03B6802F184
:1035F000FF3C0437092B10460593CDF810C00B97FC
:10360000E14600F2B981BCF1000F40F3C58173427D
:10361000049F03F003039F4238BF3B46002B00F09A
:10362000CB81B94637464FF0010C07F8011B03F177
:10363000FF3A63450AF0010A069709F1FF3919D9E3
:10364000BAF1000F08D007F8011B4FF0020C6345D8
:10365000069709F1FF390DD9BA460CF1020C0AF8A8
:10366000011B634579700AF10107BA46A9F1020905
:10367000F2D80697049F9F4268D0DDF810C0C3EBD4
:103680000C0BCDF824B04FEA9B0B4FEA8B07079742
:10369000BBF1000F3ED04FF0000A61F3070A61F35F
:1036A0000F2A06EB030C61F3174ACDF828C061F32B
:1036B0001F6A01270BF1FF3C46F803A00A9B0CEAA6
:1036C000070C5F45CDF80CC003F1040C17D2039B27
:1036D0003BB102270A9B5F45C3F804A00CF1040C20
:1036E0000DD25346824618466346023743F8040B10
:1036F0005F45CCF8040003F1040CF5D35046079B5A
:10370000DDF818C0099F9C449F42CDF818C0C3EB58
:1037100009091BD009F1FF3C069B0CF00107BCF125
:10372000000F03F8011B11DD37B10CF1FF3CBCF1B8
:10373000000F03F8011B09DD1F46ACF1020C07F86E
:10374000011B59707B1CBCF1000FF5DCDDF810C0CB
:10375000134606EB0C01059FDDF820C0ACFB077299
:10376000D208059F02EB820CA7EB4C0230320A70A4
:103770000B9F14E03A6813780437002B00F00A819D
:103780000020335412F8013F0130002BF9D10346D9
:1037900005E03B683046FFF709F804370346621C32
:1037A000F6182D18F4E538680123307004371846F0
:1037B000F5E73B68043702F1FF3C09971F09104603
:1037C0000593CDF810C0E14640F0CB80BCF1000F6E
:1037D00040F3EA807342049F03F003039F4238BF23
:1037E0003B46002B00F0E480B94637464FF0010C11
:1037F00007F8011B03F1FF3A63450AF0010A069737
:1038000009F1FF3919D9BAF1000F08D007F8011BE7
:103810004FF0020C6345069709F1FF390DD9BA46FE
:103820000CF1020C0AF8011B634579700AF10107DB
:10383000BA46A9F10209F2D80697049F9F4268D0C0
:10384000DDF810C0C3EB0C0BCDF828B04FEA9B0B92
:103850004FEA8B070797BBF1000F3ED04FF0000AED
:1038600061F3070A61F30F2A06EB030C61F3174AB1
:10387000CDF82CC061F31F6A01270BF1FF3C46F81D
:1038800003A00B9B0CEA070C5F45CDF80CC003F1BD
:10389000040C17D2039B3BB102270B9B5F45C3F877
:1038A00004A00CF1040C0DD2534682461846634620
:1038B000023743F8040B5F45CCF8040003F1040C15
:1038C000F5D35046079BDDF818C00A9F9C449F42E1
:1038D000CDF818C0C3EB09091BD009F1FF3C069BCA
:1038E0000CF00107BCF1000F03F8011B11DD37B12B
:1038F0000CF1FF3CBCF1000F03F8011B09DD1F4672
:10390000ACF1020C07F8011B59707B1CBCF1000FD5
:10391000F5DCDDF810C0134606EB0C01059A02F049
:103920000F02092A09D937320A70099F37E74FF089
:10393000FF3528460DB0BDE8F08F30320A70099F80
:103940002DE7002106F8011C013DF2E70023624645
:1039500030460097FEF7F0FF01460130711803462C
:103960003AE60123624630460097FEF7E5FF01463E
:10397000013071180346D1E76246DDF820C0ACFB88
:103980000370C3083046FEF757FA0146013071183C
:103990000346E0E6184602E7012331461846DAE618
:1039A00001233146184617E6012331461846B5E78C
:1039B000069645E70696A1E506965EE60EB410B5B6
:1039C00083B005AC642154F8042B23460194FFF71F
:1039D000CFFC03B0BDE8104003B07047122340F2A3
:1039E0007000C2F200000B80704700BF04230B8000
:1039F000004870478400002010B540F60804C2F269
:103A0000000445F2F0400A46C0F60000214600F0EE
:103A100021FE204610BD00BF0A4608B502480349F2
:103A200000F018FE014808BD0455000808080020F1
:103A30000A4608B50248034900F00CFE014808BDDB
:103A4000145500080808002008B50A4628B10648A1
:103A5000064900F0FFFD054808BD0548034900F090
:103A6000F9FD024808BD00BF3055000808080020D5
:103A70002055000808B50A4628B10648064900F056
:103A8000E9FD054808BD0548034900F0E3FD02488B
:103A900008BD00BF64550008080800204055000814
:103AA0002DE9F00F84B000230A6800911C464FF006
:103AB000010C05E0B04541D06C1CBB1C102C60D043
:103AC0000CFA04F7651C07EA02090CFA05F6B94579
:103AD00006EA020803F10207ECD10168DDF800B044
:103AE0000191032101FA03F16FEA010A01999BF8A0
:103AF00004B0CDF808A00AEA010AC0F800A00168E5
:103B00000BFA03FA0BF1FF3B5FFA8BFB4AEA010A5F
:103B1000BBF1010FC0F800A037D9C4680099DDF8E7
:103B200008A091F807900AEA0401C160C46809FA84
:103B300003F141EA0403B045C360BDD14FF0030A6D
:103B4000066800990AFA07F3DB430C791E40066009
:103B5000066804FA07F9013CE4B249EA0606012CBA
:103B600006603AD9C468CE7903EA0401C160C4682A
:103B700006FA07F343EA04016C1CBB1C102CC1605D
:103B80009ED104B0BDE8F00F70470099D0F808A0AE
:103B900049790191009989790391029901EA0A0B07
:103BA000C0F808B00199D0F808B001FA03F141EA71
:103BB0000B0AC0F808A0D0F804A02AEA0909DDF829
:103BC0000CA0C0F80490D0F804900AFA04FA1FFA86
:103BD0008AF141EA090444609FE7846891F80590FE
:103BE00003EA04068A4689798660846809FA07F937
:103BF00049EA04068660446824EA08064660466886
:103C000001FA05F4A1B20E4346605146AAE700BF8F
:103C1000CB08083301F00701890030B450F8235075
:103C20000F2404FA01FC25EA0C0440F8234050F864
:103C3000234002FA01F242EA040140F8231030BCAA
:103C4000704700BF0020704700207047F0B40B4958
:103C5000DFF82CC040F2FF77002608E00C68631CF8
:103C6000BB4294BF1D4635460CF804200D6010F889
:103C7000012B002AF2D11046F0BC704774010020DD
:103C8000341800202DE9F003002950D0294C027887
:103C90002368294E294DF25401334A1E082B2F6800
:103CA0002360A1464FF0000802F001053BD09F427F
:103CB00033D001228A4234D09DB1855CF5549B18E3
:103CC000082B236004BFC9F8008000239F4224D042
:103CD00001328A4205D124E06A1C9F421DD08A42EB
:103CE0001FD010F802C0551C5A1C082A226004BFBD
:103CF000C9F80080002206F803C0531C97420CD07C
:103D000010F805C02360082B06F802C0E4D1002398
:103D10006A1C9F42C9F80080E1D10220BDE8F0038F
:103D200070470020FAE7C4F800804346BFE7084622
:103D3000F4E700BF04080020F80700200008002076
:103D40002028F0B414D021280FD1164B1868087021
:103D50001A68100A48705A888A70D878C8701A7918
:103D60000A71587948719A798A710020F0BC7047BD
:103D70008F784E780D78CC780A4B91F804C048794A
:103D80008A7983F804C0390441EA062141EA050C26
:103D90004CEA046119609A715871034B00221A6051
:103DA000E3E700BFB000002054010020F0B40B494D
:103DB000DFF82CC040F2FF77002608E00C68631C97
:103DC000BB4294BF1D4635460CF804200D6010F828
:103DD000012B002AF2D1F0BC704700BF7401002013
:103DE000341800204FF46D42CEF200024FF46053BD
:103DF000D2F88800C4F2020340F47001C2F88810BF
:103E00001868002240F0010119609A60186843F2B6
:103E1000100120F0847C2CF48030C2F20041186044
:103E20005960186882B020F480211960DA6000922D
:103E30000192186840F480321A601A4603E0009834
:103E4000B0F5A06F09D0116801F400330193009818
:103E5000411C0091019B002BF1D04FF4605CC4F237
:103E6000020CDCF8002012F400330DD00123019382
:103E7000019901290CD04FF46D43CEF200034FF0AD
:103E80000061996002B07047019301990129F2D154
:103E90004FF46050C4F202004FF4E04C016CC4F2E5
:103EA000000C41F080530364DCF8002042F48041B0
:103EB000CCF8001083688360816841F4004282601E
:103EC000836845F2084243F4A051C0F24072816019
:103ED0004260036843F080720260014608684FF454
:103EE00060538201C4F20203F8D54FF4705CC4F24F
:103EF000020C40F20561CCF800109A6822F0030031
:103F00009860996841F002029A609A6802F00C0089
:103F10000828FAD1AFE700BF4FF46053C4F20203A0
:103F20009A6802F00C02042A13D0082A16D04FF423
:103F30001051C0F2F4014FF46050C4F20200194B6A
:103F40008268C2F3031C13F80C0021FA00F1196116
:103F500070474FF49051C0F27A01ECE758685A6804
:103F6000596810F4800F4FF4605C14BF4FF4905305
:103F70004FF41053C4F2020C14BFC0F27A03C0F223
:103F8000F40302F03F02C1F38810B3FBF2F1DCF856
:103F90000430C3F3014201FB00F1501C4300B1FBAC
:103FA000F3F1C8E7CC00002070B50120002482B0F6
:103FB000C4F202040146FDF7F9FE00254FF4D85380
:103FC000022203266946204600938DF804208DF8CE
:103FD00006508DF807508DF80560FFF761FD20460B
:103FE00008210A22FFF714FE204609210A22FFF7C2
:103FF0000FFE20460B210A22FFF70AFE0A22204666
:104000000C21FFF705FE01254FF480632046694629
:1040100000938DF806508DF807508DF80560FFF776
:104020003FFD0A210A462046FFF7F2FD29464FF4DC
:104030008040FDF7E5FE80202946FDF7C5FE4FF0E4
:1040400080502946FDF7EAFE284601F055F802B0F7
:1040500070BD00BF00B54FF4C06083B001F052F8EE
:10406000432001238DF80400032201A88DF80530B8
:104070008DF806208DF8073001F04EF803B000BD32
:10408000C0EB001044F62512C100C2F29242A2FB1E
:104090000123C81A03EB5002920802F00101012328
:1040A0003AB111B102239A4204D302339A42FCD2AC
:1040B00070477047704700BF4DF2C041C0F2010128
:1040C00044F6251201FB00F0C2F29242A2FB00214D
:1040D000431A01EB5302920802F0010101233AB1A5
:1040E00011B102239A4204D302339A42FCD27047A0
:1040F0007047704710B50B4CA37A63B14EF6105061
:10410000CEF20000016821F006020260FFF76AFEAD
:104110002046FCF725FE4FF48020BDE8104000F05B
:10412000EBBF00BFD801002040F2D810C2F200005F
:1041300000F0B6BA012000F0DFBF00BF70B54B78C9
:1041400082B00C460546092B1CD8DFE803F02E414F
:104150001B561B6F8C1BA305A1789F4E0129317044
:1041600007D890F81231022B00F05481032B00F095
:10417000E88094F90010002909DA2846802101F02E
:10418000D5F80CE094F90020002AC0F29380E3886F
:104190002846002B00F08E80002101F0C7F8284649
:1041A000FCF7C0FD002002B070BD90F81231981EDF
:1041B0000128DED8D5F81401874900280CBF012258
:1041C000032241F8082F2846012201F0FFF8E9E711
:1041D00090F81211881E0128CBD86288012AE1D1FB
:1041E000D5F8E03500209B68C5F814012846214623
:1041F0009847284601F01EF9D4E76388012B00F0A8
:104200001B81022BCED1A38813F0FF0FCAD1016905
:104210001C0A4A68631E1046042B00F2A880DFE8DF
:1042200013F0AB00B700B100BD00A200A0880028C9
:104230009FD1E388002B9CD195F812116288032945
:104240009BD002F07F04284685F81341214601F0F7
:10425000B5F8284601F0EEF8002C00F0E9800222C3
:1042600085F812219EE76288110A481E062880D828
:1042700001A151F820F000BF19430008DF420008F7
:10428000CD420008734100087341000873410008E3
:1042900073410008E288012A10D190F81231022BF4
:1042A00000F0B480032B47D094F900C0BCF1000F9C
:1042B000BFF672AF802101F039F870E794F9001071
:1042C0000029F7DB002A7FF467AFF3E7D0B20528B7
:1042D0003FF64FAFDFE800F0928A82787068D5F839
:1042E000E015A8788B6A01A998470222427001461E
:1042F000C5F8EC05BDF80430002B3FF453AFE2885D
:10430000002A3FF44FAF9A4228BF1A462846ADF81C
:10431000042001F05BF845E7D5F8E835A8781A687D
:1043200001A99047E288402A014603D095F812017E
:104330000128DFD10823E3E700F5887101F046F892
:1043400030E700297ED090F81011012911D0FCF738
:10435000F5FE3178284685F81011FCF7E3FE284673
:1043600001F068F81EE7052363F3061002464A6071
:10437000284601F05FF815E7012262F306100246B5
:104380004A60F5E7032464F3061002464A60EFE74B
:10439000022363F3061002464A60E9E7042262F34F
:1043A000061002464A60E3E7D5F8E815A8788A695E
:1043B00001A9904701469DE7D5F8E835A8785A69E4
:1043C00001A99047014695E7D5F8E815A8780B694B
:1043D00001A9984701468DE758010020D5F8E82546
:1043E000A878D36801A99847014683E7D5F8E8156E
:1043F000A8788A6801A9904701467BE7D5F8E83597
:10440000A8785A6801A99047014673E7134900F05C
:10441000DDFFC7E60029ABD00121032380F810118E
:1044200080F81231FCF77EFE284601F003F8B9E669
:10443000012085F81201B5E6D0F8E015C0F8143176
:104440008B68D3E6022280F8122180F81011FCF765
:1044500075FE284600F0EEFFA4E600BF5C010020D8
:1044600038B590F81231032B04460D460ED091F961
:104470000010002916DBEA8820469AB1002100F0DE
:1044800055FF2046FCF74EFC002038BD0879012876
:104490000CD991F900000028EDDA2046802100F0C7
:1044A00045FFEEE7802100F041FFEAE7D4F8E03570
:1044B00020469A689047E9880029E5D1204600F017
:1044C000B9FFE1E738B54B78012B0C460546097971
:1044D00012D003D3032B1BD0002038BD90F812312B
:1044E000022B0DD0032B3DD094F90010002919DACE
:1044F000802100F01BFF1CE090F81231022B1DD12F
:104500000029E9D08029E7D0284600F00FFFE3E733
:1045100090F81231022BF3D0032B34D094F9000021
:1045200000284FDBE3882846002BE1D0002100F073
:10453000FDFE2846FCF7F6FB002038BD032BEDD12D
:104540006388002BC8D149B1802907D000F016FF3D
:10455000D5F8E01528468A6821469047284600F09D
:1045600069FFB9E70B061FD401EB810100EBC10223
:1045700092F8723313BB164AD360284615490222BB
:1045800000F024FFA8E7638823B919B1802901D07E
:1045900000F0CCFED5F8E005214682682846904719
:1045A000284600F047FF97E701F07F0E0EEB8E03E1
:1045B00000EBC30C9CF81A31002BDCD0044B01201B
:1045C000D860DAE72846802100F0B0FEB1E700BFEE
:1045D000580100206401002090F8C8250A7090F866
:1045E000C9354B7090F8CB2590F8CA3503EB022CF7
:1045F000A1F802C090F8CD2590F8CC3503EB022C41
:10460000A1F804C090F8CF2590F8CE3503EB022C2A
:104610001FFA8CF20123CA80C0F83C2180F81131C6
:10462000704700BF10B591F90030002B04460DDB38
:10463000C98839B1002100F079FE2046BDE810405C
:10464000FCF770BB802100F071FEF6E7802100F0DE
:104650006DFEF2E730B4F0B10378F3B10446002305
:1046600014F8015F0133DBB2002DF9D15C00A31C0B
:10467000DCB2138003220C704A7002785AB1022314
:1046800000255C1CE4B2CA540D5510F8012F02330A
:10469000DBB2002AF5D130BC704702242346E8E79C
:1046A0002DE9F04F83B00446FCF714F810B903B0BD
:1046B000BDE8F08F2046FCF715F880460028F6D0BC
:1046C000C0F3074101F00800C0B2002840F0E580C7
:1046D000C8F3074E0EF0040C5FFA8CF2002A5DD18D
:1046E00008F00201CAB212B1E36802225A61C8F3AB
:1046F000076E0EF08002D1B291B1A07A002840F08E
:10470000D1812369A54A5968126821F001005860D7
:10471000916920468847E0684FF0004242610120DD
:10472000C8F3072202F00801CBB2002B40F0388119
:1047300008F00801CBB2002B40F0268108F01001F0
:10474000CBB2002B40F0F980C8F3072202F0100131
:10475000CBB2002B40F04A81C8F3072101F02002C0
:10476000D3B2002B40F08681C8F3074E0EF0100242
:10477000D1B2002940F07381C8F3074202F0200152
:10478000CBB2002B93D0854802682046116A884737
:10479000E3684FF400105861012088E72046FCF7D9
:1047A000B9FA8246002800F0AB8127464FF0000B93
:1047B000CDF8048038E005F00401CBB213B1B8693C
:1047C0000425856005F0080E5FFA8EF212B1BB6910
:1047D00008259D6005F01000C1B211B1BA6910251D
:1047E000956005F02001CBB213B1B8692025856032
:1047F00005F0400C5FFA8CF212B1BB6940259D6058
:1048000005F00200C1B211B1BA690225956005F048
:104810008005EDB2002D40F07A8104375FEA5A0A34
:104820000BF1010B00F0AE811AF0010FF5D02369F6
:104830005FFA8BF819695A6B04EB880E22FA08F5B7
:10484000DEF81800ED0182685FFA85FC4CEA010091
:1048500000EA0205EDB2EA07ADD55A6B012505FA6B
:104860000BF640F2300C22EA0600C2F2000C58634C
:10487000DCF80010BB694E689D6020464146B04799
:10488000E678AE4297D1BBF1000F04D194F81151F4
:10489000042D00F0378135468DE72046FCF728FAD5
:1048A0000546002800F02A81DFF8F0B02646A14630
:1048B0000027C24606E0013704366D0809F12809D1
:1048C00000F06481E807F6D55FFA87F84146204694
:1048D000FCF716FAC0B2C10713D5736D01209860BA
:1048E000E278012A00F06181DBF8001020460B68B5
:1048F0004146984794F80380B8F1010F00F04981D0
:10490000012000F00201CBB213B1726D0220906061
:1049100000F00401CBB213B1726D0420906000F07E
:104920000803D8B20028C6D0DBF8001020468B68F8
:104930009847726D08219160BDE7E3689A6922F09B
:1049400010059D611D6A05F00F0E0EEB8E00C5F37C
:10495000434204EBC006022A06F55C7600F0AE8006
:10496000062A0BD104F5B96108222046FBF750FC5A
:10497000B169E368C5F30A154A19B2619A6942F050
:10498000100098610120DFE6044A11682046CB68D8
:104990009847E068082242610120CFE630000020FD
:1049A0008648036820465A6990472169E368896808
:1049B0004FF400625A61A07A00287DD0CB077BD5E6
:1049C000D4F80C31186840F001021A6019684FF4ED
:1049D0006D4C41F00300CEF2000C1860DCF81020A2
:1049E00042F00601CCF810100120A1E623695968B5
:1049F000002521F00100586029462046FBF724FEDF
:104A0000667866B104F114022B46FF2152F8046F58
:104A1000B160D06B816066780133B342F6D3012672
:104A2000236966F30F050F224FF0FF312F2066F345
:104A30001F459961DD615A61186119686FF30A11A8
:104A400019602046FCF76EF95C4AE06813684FF481
:104A5000805141611A692046904730467CE65748AC
:104A600002682046D1698847E3684FF48010586196
:104A7000012081E62046FBF733FFE5682046ED681C
:104A8000FBF720FF03282FD0012040210522A07032
:104A9000A18062F38D25E3684FF40052DD600120B0
:104AA0005A6161E6D4F80C31D4F80C116FF341036C
:104AB0006FF300030B6024E6012039E647F6F0703F
:104AC00005EA000100293FF459AFC5F30A152A464B
:104AD000F1682046FBF79CFBF068B169E368421976
:104AE0004D19F260B56149E700234FF4007C0920BD
:104AF000A370A4F804C060F38D25CCE70120E7E59E
:104B00000120EDE52046FCF70DF9354653E60BEBA9
:104B10008B0304EBC30606F58C75B9696A69A8694D
:104B2000AB68D1F81890161A9E4234BFB4469C4622
:104B30000CF1030E1FFA89F9B9EB9E0F1FD98242BF
:104B40001DD9E2B1E96804E06E69B34216D2F61AE3
:104B5000AB689E4228BF1E46B3B242462046FBF7D2
:104B600031FBAA69E968B3188919E960AB61BA69D0
:104B70009069033680B2B0EB960FE5D811468023DA
:104B80008B604AE6DDF804800120A9E5D0460120CB
:104B90009EE51FB994F81121052A01D04046B0E6E0
:104BA0002046FCF7BFF84046ABE61869D9F87823F1
:104BB000C0F31201531AC9F8883395E6300000207B
:104BC000432340F2E000C2F200000B80704700BFB8
:104BD0001E4938B50B685A1C052B0A6001D000200D
:104BE00038BD91F804C00023BCF1010F0B60F6D072
:104BF0008A68164CB2F5006F04BF8B601A46CB680A
:104C0000934220D02CBFC2EB0305C2F5006525619D
:104C1000D0F8EC45B4F83930AB420DD2D418ED1AC7
:104C200092B28C600D610A4C121901240C71812121
:104C300000F060FB002038BDAC1800230B6192B27D
:104C40008C60ABB2EFE700202071C8E7680100205C
:104C50003418002038B501EB8104054600EBC4018F
:104C600040F2B800C2F2000041F2EC74C2F200045B
:104C70000269B1F8881320469047D5F8EC352846EC
:104C8000B3F840300121224600F016FB002038BD69
:104C900070B50B7813F060060C46054608D14B78CA
:104CA0000A2B1CD00B2B2DD0062B31D0304670BDDB
:104CB000202E03D0FFF7B6FC022070BDCE88002E58
:104CC00031D01B0611D448781F4A204B506420492C
:104CD0005E612846324600F093FB002070BD1D49FE
:104CE000012200F073FB304670BD1B4A4878936880
:104CF000174932469847E2881549284600F066FB76
:104D0000002070BD8B78B3B9104918468B6170BD17
:104D10004A88100A212812D0324628460F4900F04E
:104D200055FB002070BD48780B4932468B683146F0
:104D30009847304670BDFFF775FC304670BDCA8895
:104D40003A2A28BF3A22E8E7E00000206801002064
:104D50002C18002080010020B8000020F200002064
:104D600010B58121044600F091FA0121204600F09F
:104D70008DFA8221204600F089FA40F2B800C2F292
:104D8000000043689847002010BD00BFD0F8EC3504
:104D900070B504468121B3F83920022300F056FA99
:104DA000D4F8EC6540F26815B6F84020B6F83960E2
:104DB000C2F2000501210223EE61204600F046FA0E
:104DC000032382210822204600F040FA40F2700CB2
:104DD00040F2B802C2F2000CC2F200020221002529
:104DE0008CF804108CF8055010688047D4F8EC3526
:104DF00041F2EC72B3F84030C2F2000220460121C9
:104E000000F05AFA284670BD10B5074C606CFF28B8
:104E100007D00649064A8B68526906499847FF231E
:104E20006364002010BD00BFE0000020B800002037
:104E3000680100202C18002038B512490B79012B8D
:104E400001D0002038BD0C69CCB1D0F8EC25B2F807
:104E500039308A689C420CD813198B6000230B618F
:104E600092B2A3B208495218812100F043FA0020FF
:104E700038BD9D18E41A92B28D600C61F2E70C7196
:104E8000002038BD680100203418002070B58288E9
:104E900084B0044668460D4622F03F06FCF728FF22
:104EA00002982A684DF68363C4F21B333604A3FBD1
:104EB0000031360C890C41EA0603A380B4F800C027
:104EC0002CF00106330448F2A066C0F201061B0C68
:104ED000B242238029D85300B0FBF3F080B20131F5
:104EE0002184032898BF0420A0832388B5F804E018
:104EF00029896E89AA891FFA83FC4CF00100208061
:104F0000238823F4806C2CF00A0003041B0C46EA6F
:104F10000E0043EA000C41EA020E1FFA8CF01FFA61
:104F20008EF12080218104B070BDB5F806C04BF62B
:104F3000FF7EF44521D002EB820E0EEB8E06B0FB15
:104F4000F6F398B240F4804003051A0D0AB940F018
:104F500001004FF4967344F6D35603FB01F2C1F2FD
:104F6000620686FB02236FEA40409E096FEA504CBE
:104F7000711C1FFA8CF02184B6E702EB4202B0FBF1
:104F8000F2F6B0B2E0E700BF038829B923F00101CF
:104F90000B041A0C0280704799B241F001030380A0
:104FA000704700BF038829B923F480710B041A0CE1
:104FB0000280704799B241F480730380704700BF4C
:104FC000038829B923F400710B041A0C028070477E
:104FD00099B241F400730380704700BF1AB901F021
:104FE000FE010182704741F001010182704700BF5C
:104FF000038829B923F480610B041A0C02807047DE
:1050000099B241F480630380704700BF018270470A
:10501000008AC0B2704700BFB0F814C0038B1FFAFB
:105020008CF242EA034000EA010C2CF07F428B1A1A
:10503000584240EB0300704782B000230A0F0093F0
:10504000019301900092009B21F07F4153B10198A0
:10505000143001900198036819420CBF0020012010
:1050600002B07047019A1832090C0192F2E700BFB2
:10507000837970B443B34FF47053C4F201030168F1
:105080001E6802794579CC4326401E605E6802F1B5
:10509000804C0CF59E3234405C60146821431160F2
:1050A00002689868D14308409860D868102D01EADA
:1050B0000001D96016D005F1804505F59E352868B8
:1050C00040EA02032B600BE00279016802F18040A4
:1050D00000F59E3CDCF8003023EA0102CCF8002009
:1050E00070BC7047996841EA02009860D96841EA4B
:1050F0000200D860F4E700BF4FF47053C4F201031C
:10510000586170474FF46D4340F0BE61CEF200032A
:1051100041F42020D8607047C37830B47BB9007860
:105120004FF4614C410900F01F02CEF2000C203117
:10513000012303FA02F04CF8210030BC70474FF411
:105140006D45CEF200054278EC6885780178E3433E
:10515000C3F3022CCCF10404E3B202FA03F40F22ED
:1051600042FA0CF303EA050CE4B24FF461434CEA53
:105170000402CEF2000301EB030C1201D1B28CF851
:10518000001302784FF4614C5109CEF2000C02F08A
:105190001F03012000FA03F24CF82120CDE700BFE5
:1051A00070B50446FBF758F862780126002384F8AE
:1051B000126184F81331B2B31946402503EB830022
:1051C000C20002F58C7004EB000C2354ACF80630DE
:1051D0008CF801608CF80310CCF80850CCF80C1057
:1051E000CCF81410627801339A42E7D8DAB1002380
:1051F0001946402503EB8302D00000F55C7204EBF6
:10520000020CA354ACF806308CF801108CF8031093
:10521000CCF80850CCF80C10CCF8141094F801E03D
:1052200001339E45E6D82046FBF706FA2046FBF7F9
:10523000FBF800212046FBF733FA2046FBF758FA2B
:105240002046BDE87040FBF7EFB900BF38B501F06C
:105250007F05CCB205EB850100EBC10114F0800F96
:1052600014BF01F58C7101F55C71EDB2E4090D70AC
:105270004C708A60CB7004B1CD80022B01D1002329
:105280000B71FBF749FB002038BD00BF01F07F0226
:1052900008B5CBB202EB820100EBC10113F0800F25
:1052A00014BF01F58C7101F55C71DB090A704B705C
:1052B000FBF768FB002008BD70B501F07F0404EB2C
:1052C0008405E90001F55C768119E4B20025845576
:1052D000CA604B618D614D70C378012B08BF0A61B4
:1052E0001CB1FBF773FB002070BDFBF741FC0020F5
:1052F00070BD00BF70B501F07F0404EB8405E900C8
:1053000001F58C754119E4B20126CA600A610022D8
:105310004E7044558A614B611CB1FBF757FB00206E
:1053200070BDFBF725FC002070BD00BFCAB213069C
:1053300010B511D401EB810E00EBCE0C0CF55C73B3
:10534000D20901F07F01012419709C705A7019462E
:10535000FBF798FC002010BD01F07F0101EB8104F8
:1053600000EBC40303F58C73D209012419709C70FF
:105370005A701946FBF786FC002010BDCAB210B562
:10538000140611D401EB810E00EBCE0C0CF55C730E
:1053900001F07F010024D20919709C705A701946DF
:1053A000FBF78CFC204610BD01F07F0101EB81046E
:1053B00000EBC40303F58C73ECE700BF0369002224
:1053C000186861F30A1202431A60704708B5134661
:1053D0000A460221C0F83831C0F8343180F8111182
:1053E0000021FFF787FF002008BD00BF10B50C4665
:1053F000134600212246FFF77DFF002010BD00BFAD
:1054000008B513460A460321C0F89033C0F88C3320
:1054100080F811110021FFF74FFF002008BD00BFE9
:1054200010B50C46134600212246FFF745FF002029
:1054300010BD00BF10B50446002104200A460B46EB
:1054400084F811012046FFF755FF2046FBF76AFC60
:10545000002010BD10B50446002105200A460B4669
:1054600084F811012046FFF727FF2046FBF75AFC7E
:10547000002010BD0201020008000000080000002A
:10548000080000000800000000100020004000801C
:105490000600000000000000000000000100000005
:1054A0000100000001000000617825690D0A00007C
:1054B000617925690D0A0000617A25690D0A0000ED
:1054C0006D7825690D0A00006D7925690D0A0000C7
:1054D0006D7A25690D0A0000677825690D0A0000BC
:1054E000677925690D0A0000677A25690D0A0000B1
:1054F00053544D6963726F656C656374726F6E6946
:105500006373000056435020496E74657266616390
:105510006500000056435020436F6E6669670000C7
:105520003030303030303030303530420000000024
:105530003030303030303030303530430000000013
:1055400053544D3332205669727475616C20436F29
:105550006D506F727420696E204853206D6F6465C2
:105560000000000053544D33322056697274756147
:105570006C20436F6D506F727420696E204653200B
:085580004D6F6465000000009E
:10558800810D0008850D0008890D00088D0D0008A3
:10559800910D00080000000000000000000C02400F
:1055A800000C0240000C0240000C024000000240C7
:1055B8003400002071100008CD0F00087D0F00088E
:1055C8001D0F00084D0F0008090F0008F10E000814
:1055D8002D0F00083D0F000800000000000000002B
:1055E8000000000001020304010203040607080981
:1055F800120100020000004083044057000201022B
:1056080003010000040309040A0600020000004028
:1056180001000000DD390008ED390008F9390008FB
:10562800753A0008493A0008313A0008193A000862
:1056380000C2010000000800453C0008493C000881
:10564800413D00084D3C0008853C00080000000072
:10565800000000000102030406070809007A030A93
:1056680009024300020100C03209040000010202DD
:105678000100052400100105240100010424020290
:105688000524060001070582030800FF090401003C
:10569800020A000000070501024000000705810218
:1056A80040000000FF0000008D4D0008614D00081B
:1056B800914C000800000000094E0008394E00080F
:1056C800554C0008D14B0008000000000000000005
:0456D800C14B0008BA
:0400000508000000EF
:00000001FF
